{
  "contractName": "BurnToClaim",
  "abi": [
    {
      "anonymous": false,
      "inputs": [
        {
          "indexed": true,
          "internalType": "bytes32",
          "name": "transactionId",
          "type": "bytes32"
        }
      ],
      "name": "entryTransactionEvent",
      "type": "event"
    },
    {
      "anonymous": false,
      "inputs": [
        {
          "indexed": true,
          "internalType": "bytes32",
          "name": "transactionId",
          "type": "bytes32"
        },
        {
          "indexed": true,
          "internalType": "address",
          "name": "sender",
          "type": "address"
        },
        {
          "indexed": true,
          "internalType": "address",
          "name": "receiver",
          "type": "address"
        },
        {
          "indexed": false,
          "internalType": "address",
          "name": "tokenContract",
          "type": "address"
        },
        {
          "indexed": false,
          "internalType": "uint256",
          "name": "amount",
          "type": "uint256"
        },
        {
          "indexed": false,
          "internalType": "bytes32",
          "name": "hashlock",
          "type": "bytes32"
        },
        {
          "indexed": false,
          "internalType": "uint256",
          "name": "timelock",
          "type": "uint256"
        }
      ],
      "name": "exitTransactionEvent",
      "type": "event"
    },
    {
      "anonymous": false,
      "inputs": [
        {
          "indexed": true,
          "internalType": "bytes32",
          "name": "transactionId",
          "type": "bytes32"
        }
      ],
      "name": "reclaimTransactionEvent",
      "type": "event"
    },
    {
      "anonymous": false,
      "inputs": [
        {
          "indexed": false,
          "internalType": "string",
          "name": "message",
          "type": "string"
        }
      ],
      "name": "requireMockEvent",
      "type": "event"
    },
    {
      "anonymous": false,
      "inputs": [
        {
          "indexed": false,
          "internalType": "string",
          "name": "message",
          "type": "string"
        }
      ],
      "name": "revertMockEvent",
      "type": "event"
    },
    {
      "inputs": [
        {
          "internalType": "address",
          "name": "contractAddress",
          "type": "address"
        }
      ],
      "name": "registerContract",
      "outputs": [],
      "stateMutability": "nonpayable",
      "type": "function"
    },
    {
      "inputs": [
        {
          "internalType": "address",
          "name": "_burnAddress",
          "type": "address"
        },
        {
          "internalType": "bytes32",
          "name": "_hashlock",
          "type": "bytes32"
        },
        {
          "internalType": "uint256",
          "name": "_timelock",
          "type": "uint256"
        },
        {
          "internalType": "address",
          "name": "_tokenContract",
          "type": "address"
        },
        {
          "internalType": "uint256",
          "name": "_amount",
          "type": "uint256"
        }
      ],
      "name": "exitTransaction",
      "outputs": [
        {
          "internalType": "bytes32",
          "name": "transactionId",
          "type": "bytes32"
        }
      ],
      "stateMutability": "nonpayable",
      "type": "function"
    },
    {
      "inputs": [
        {
          "internalType": "address",
          "name": "_crosschainContractAddress",
          "type": "address"
        },
        {
          "internalType": "bytes32",
          "name": "_transactionId",
          "type": "bytes32"
        },
        {
          "internalType": "address",
          "name": "_burnAddress",
          "type": "address"
        },
        {
          "internalType": "bytes32",
          "name": "_hashlock",
          "type": "bytes32"
        },
        {
          "internalType": "uint256",
          "name": "_timelock",
          "type": "uint256"
        },
        {
          "internalType": "address",
          "name": "_tokenContract",
          "type": "address"
        },
        {
          "internalType": "uint256",
          "name": "_amount",
          "type": "uint256"
        }
      ],
      "name": "add",
      "outputs": [],
      "stateMutability": "nonpayable",
      "type": "function"
    },
    {
      "inputs": [
        {
          "internalType": "uint256",
          "name": "_amount",
          "type": "uint256"
        },
        {
          "internalType": "address",
          "name": "_receiver",
          "type": "address"
        },
        {
          "internalType": "bytes32",
          "name": "_transactionId",
          "type": "bytes32"
        },
        {
          "internalType": "bytes32",
          "name": "_preimage",
          "type": "bytes32"
        }
      ],
      "name": "entryTransaction",
      "outputs": [
        {
          "internalType": "bool",
          "name": "",
          "type": "bool"
        }
      ],
      "stateMutability": "nonpayable",
      "type": "function"
    },
    {
      "inputs": [
        {
          "internalType": "address",
          "name": "_crosschainContractAddress",
          "type": "address"
        },
        {
          "internalType": "bytes32",
          "name": "_transactionId",
          "type": "bytes32"
        },
        {
          "internalType": "bytes32",
          "name": "_preimage",
          "type": "bytes32"
        }
      ],
      "name": "update",
      "outputs": [],
      "stateMutability": "nonpayable",
      "type": "function"
    },
    {
      "inputs": [
        {
          "internalType": "bytes32",
          "name": "_transactionId",
          "type": "bytes32"
        }
      ],
      "name": "reclaimTransaction",
      "outputs": [
        {
          "internalType": "bool",
          "name": "",
          "type": "bool"
        }
      ],
      "stateMutability": "nonpayable",
      "type": "function"
    },
    {
      "inputs": [
        {
          "internalType": "bytes32",
          "name": "_transactionId",
          "type": "bytes32"
        }
      ],
      "name": "reclaimTransaction1",
      "outputs": [
        {
          "internalType": "bool",
          "name": "",
          "type": "bool"
        }
      ],
      "stateMutability": "nonpayable",
      "type": "function"
    },
    {
      "inputs": [
        {
          "internalType": "address",
          "name": "_tokenContract",
          "type": "address"
        },
        {
          "internalType": "address",
          "name": "_recipient",
          "type": "address"
        },
        {
          "internalType": "uint256",
          "name": "_amount",
          "type": "uint256"
        }
      ],
      "name": "btcTransfer",
      "outputs": [],
      "stateMutability": "nonpayable",
      "type": "function"
    },
    {
      "inputs": [
        {
          "internalType": "address",
          "name": "_tokenContract",
          "type": "address"
        },
        {
          "internalType": "address",
          "name": "_sender",
          "type": "address"
        },
        {
          "internalType": "address",
          "name": "_recipient",
          "type": "address"
        },
        {
          "internalType": "uint256",
          "name": "_amount",
          "type": "uint256"
        }
      ],
      "name": "btcTransferFrom",
      "outputs": [],
      "stateMutability": "nonpayable",
      "type": "function"
    },
    {
      "inputs": [
        {
          "internalType": "bytes32",
          "name": "_transactionId",
          "type": "bytes32"
        }
      ],
      "name": "getContract",
      "outputs": [
        {
          "internalType": "address",
          "name": "sender",
          "type": "address"
        },
        {
          "internalType": "address",
          "name": "receiver",
          "type": "address"
        },
        {
          "internalType": "address",
          "name": "tokenContract",
          "type": "address"
        },
        {
          "internalType": "uint256",
          "name": "amount",
          "type": "uint256"
        },
        {
          "internalType": "bytes32",
          "name": "hashlock",
          "type": "bytes32"
        },
        {
          "internalType": "uint256",
          "name": "timelock",
          "type": "uint256"
        },
        {
          "internalType": "bool",
          "name": "withdrawn",
          "type": "bool"
        },
        {
          "internalType": "bool",
          "name": "refunded",
          "type": "bool"
        },
        {
          "internalType": "bytes32",
          "name": "preimage",
          "type": "bytes32"
        }
      ],
      "stateMutability": "view",
      "type": "function"
    }
  ],
  "bytecode": "0x608060405234801561001057600080fd5b50611a2a806100206000396000f3fe608060405234801561001057600080fd5b506004361061009e5760003560e01c806364ff30041161006657806364ff30041461017f5780636d0c27a81461019b578063cbbd8a1d146101b7578063d9d1ca47146101d3578063e16c7d98146101ef5761009e565b8063159a962c146100a357806322a5dde4146100d357806340d1ce73146100ef578063449b03951461011f5780634cc28a191461014f575b600080fd5b6100bd60048036038101906100b891906111b9565b610227565b6040516100ca9190611243565b60405180910390f35b6100ed60048036038101906100e8919061125e565b610681565b005b6101096004803603810190610104919061128b565b61075b565b60405161011691906112d3565b60405180910390f35b610139600480360381019061013491906112ee565b6108cf565b60405161014691906112d3565b60405180910390f35b6101696004803603810190610164919061128b565b610a27565b60405161017691906112d3565b60405180910390f35b61019960048036038101906101949190611355565b610b9b565b005b6101b560048036038101906101b091906113a8565b610bdd565b005b6101d160048036038101906101cc91906113fb565b610c9f565b005b6101ed60048036038101906101e8919061149d565b610e86565b005b6102096004803603810190610204919061128b565b610f4b565b60405161021e99989796959493929190611522565b60405180910390f35b6000804290508373ffffffffffffffffffffffffffffffffffffffff1663dd62ed3e33306040518363ffffffff1660e01b81526004016102689291906115af565b602060405180830381865afa158015610285573d6000803e3d6000fd5b505050506040513d601f19601f820116820180604052508101906102a991906115ed565b506002338886868a8a6040516020016102c7969594939291906116a4565b6040516020818303038152906040526040516102e3919061178e565b602060405180830381855afa158015610300573d6000803e3d6000fd5b5050506040513d601f19601f8201168201806040525081019061032391906117ba565b915061032e8261107c565b1561036e576040517f08c379a000000000000000000000000000000000000000000000000000000000815260040161036590611844565b60405180910390fd5b8373ffffffffffffffffffffffffffffffffffffffff166323b872dd3389866040518463ffffffff1660e01b81526004016103ab93929190611864565b6020604051808303816000875af11580156103ca573d6000803e3d6000fd5b505050506040513d601f19601f820116820180604052508101906103ee91906118c7565b61042d576040517f08c379a000000000000000000000000000000000000000000000000000000000815260040161042490611966565b60405180910390fd5b6040518061012001604052803373ffffffffffffffffffffffffffffffffffffffff1681526020018873ffffffffffffffffffffffffffffffffffffffff1681526020018573ffffffffffffffffffffffffffffffffffffffff1681526020018481526020018781526020018681526020016000151581526020016000151581526020016000801b81525060008084815260200190815260200160002060008201518160000160006101000a81548173ffffffffffffffffffffffffffffffffffffffff021916908373ffffffffffffffffffffffffffffffffffffffff16021790555060208201518160010160006101000a81548173ffffffffffffffffffffffffffffffffffffffff021916908373ffffffffffffffffffffffffffffffffffffffff16021790555060408201518160020160006101000a81548173ffffffffffffffffffffffffffffffffffffffff021916908373ffffffffffffffffffffffffffffffffffffffff160217905550606082015181600301556080820151816004015560a0820151816005015560c08201518160060160006101000a81548160ff02191690831515021790555060e08201518160060160016101000a81548160ff02191690831515021790555061010082015181600701559050508673ffffffffffffffffffffffffffffffffffffffff163373ffffffffffffffffffffffffffffffffffffffff16837fa2a72d0528ccc829345e59386d5d35f088e634e3f387a029c08067fa727c654687878b4260405161066f9493929190611986565b60405180910390a45095945050505050565b60405180604001604052808273ffffffffffffffffffffffffffffffffffffffff16815260200160011515815250600160008373ffffffffffffffffffffffffffffffffffffffff1673ffffffffffffffffffffffffffffffffffffffff16815260200190815260200160002060008201518160000160006101000a81548173ffffffffffffffffffffffffffffffffffffffff021916908373ffffffffffffffffffffffffffffffffffffffff16021790555060208201518160000160146101000a81548160ff02191690831515021790555090505050565b600080600080848152602001908152602001600020905060018160060160016101000a81548160ff0219169083151502179055508060020160009054906101000a900473ffffffffffffffffffffffffffffffffffffffff1673ffffffffffffffffffffffffffffffffffffffff1663a9059cbb8260000160009054906101000a900473ffffffffffffffffffffffffffffffffffffffff1683600301546040518363ffffffff1660e01b81526004016108169291906119cb565b6020604051808303816000875af1158015610835573d6000803e3d6000fd5b505050506040513d601f19601f8201168201806040525081019061085991906118c7565b610898576040517f08c379a000000000000000000000000000000000000000000000000000000000815260040161088f90611966565b60405180910390fd5b827f7b932d7c3c50d56f3e342fca080984c95d87d5611ec3487235c1854056cc8eb460405160405180910390a26001915050919050565b600080600080858152602001908152602001600020905082816007018190555060018160060160006101000a81548160ff0219169083151502179055508060020160009054906101000a900473ffffffffffffffffffffffffffffffffffffffff1673ffffffffffffffffffffffffffffffffffffffff1663a9059cbb86886040518363ffffffff1660e01b815260040161096b9291906119cb565b6020604051808303816000875af115801561098a573d6000803e3d6000fd5b505050506040513d601f19601f820116820180604052508101906109ae91906118c7565b6109ed576040517f08c379a00000000000000000000000000000000000000000000000000000000081526004016109e490611966565b60405180910390fd5b837fccc078c3cc52c3238bfb3152392fb494a9394ecab9842bb9c46395dc84ad29c660405160405180910390a26001915050949350505050565b600080600080848152602001908152602001600020905060018160060160016101000a81548160ff0219169083151502179055508060020160009054906101000a900473ffffffffffffffffffffffffffffffffffffffff1673ffffffffffffffffffffffffffffffffffffffff1663a9059cbb8260000160009054906101000a900473ffffffffffffffffffffffffffffffffffffffff1683600301546040518363ffffffff1660e01b8152600401610ae29291906119cb565b6020604051808303816000875af1158015610b01573d6000803e3d6000fd5b505050506040513d601f19601f82011682018060405250810190610b2591906118c7565b610b64576040517f08c379a0000000000000000000000000000000000000000000000000000000008152600401610b5b90611966565b60405180910390fd5b827f7b932d7c3c50d56f3e342fca080984c95d87d5611ec3487235c1854056cc8eb460405160405180910390a26001915050919050565b6000806000848152602001908152602001600020905081816007018190555060018160060160006101000a81548160ff02191690831515021790555050505050565b8273ffffffffffffffffffffffffffffffffffffffff1663a9059cbb83836040518363ffffffff1660e01b8152600401610c189291906119cb565b6020604051808303816000875af1158015610c37573d6000803e3d6000fd5b505050506040513d601f19601f82011682018060405250810190610c5b91906118c7565b610c9a576040517f08c379a0000000000000000000000000000000000000000000000000000000008152600401610c9190611966565b60405180910390fd5b505050565b6040518061012001604052803373ffffffffffffffffffffffffffffffffffffffff1681526020018673ffffffffffffffffffffffffffffffffffffffff1681526020018373ffffffffffffffffffffffffffffffffffffffff1681526020018281526020018581526020018481526020016000151581526020016000151581526020016000801b81525060008088815260200190815260200160002060008201518160000160006101000a81548173ffffffffffffffffffffffffffffffffffffffff021916908373ffffffffffffffffffffffffffffffffffffffff16021790555060208201518160010160006101000a81548173ffffffffffffffffffffffffffffffffffffffff021916908373ffffffffffffffffffffffffffffffffffffffff16021790555060408201518160020160006101000a81548173ffffffffffffffffffffffffffffffffffffffff021916908373ffffffffffffffffffffffffffffffffffffffff160217905550606082015181600301556080820151816004015560a0820151816005015560c08201518160060160006101000a81548160ff02191690831515021790555060e08201518160060160016101000a81548160ff021916908315150217905550610100820151816007015590505050505050505050565b8373ffffffffffffffffffffffffffffffffffffffff166323b872dd8484846040518463ffffffff1660e01b8152600401610ec393929190611864565b6020604051808303816000875af1158015610ee2573d6000803e3d6000fd5b505050506040513d601f19601f82011682018060405250810190610f0691906118c7565b610f45576040517f08c379a0000000000000000000000000000000000000000000000000000000008152600401610f3c90611966565b60405180910390fd5b50505050565b6000806000806000806000806000801515610f658b61107c565b15151415610f9e5760008060008060008060008060008460001b94508060001b905098509850985098509850985098509850985061106f565b60008060008c815260200190815260200160002090508060000160009054906101000a900473ffffffffffffffffffffffffffffffffffffffff168160010160009054906101000a900473ffffffffffffffffffffffffffffffffffffffff168260020160009054906101000a900473ffffffffffffffffffffffffffffffffffffffff168360030154846004015485600501548660060160009054906101000a900460ff168760060160019054906101000a900460ff168860070154995099509950995099509950995099509950505b9193959799909294969850565b60008073ffffffffffffffffffffffffffffffffffffffff1660008084815260200190815260200160002060000160009054906101000a900473ffffffffffffffffffffffffffffffffffffffff1673ffffffffffffffffffffffffffffffffffffffff1614159050919050565b600080fd5b600073ffffffffffffffffffffffffffffffffffffffff82169050919050565b600061111a826110ef565b9050919050565b61112a8161110f565b811461113557600080fd5b50565b60008135905061114781611121565b92915050565b6000819050919050565b6111608161114d565b811461116b57600080fd5b50565b60008135905061117d81611157565b92915050565b6000819050919050565b61119681611183565b81146111a157600080fd5b50565b6000813590506111b38161118d565b92915050565b600080600080600060a086880312156111d5576111d46110ea565b5b60006111e388828901611138565b95505060206111f48882890161116e565b9450506040611205888289016111a4565b935050606061121688828901611138565b9250506080611227888289016111a4565b9150509295509295909350565b61123d8161114d565b82525050565b60006020820190506112586000830184611234565b92915050565b600060208284031215611274576112736110ea565b5b600061128284828501611138565b91505092915050565b6000602082840312156112a1576112a06110ea565b5b60006112af8482850161116e565b91505092915050565b60008115159050919050565b6112cd816112b8565b82525050565b60006020820190506112e860008301846112c4565b92915050565b60008060008060808587031215611308576113076110ea565b5b6000611316878288016111a4565b945050602061132787828801611138565b93505060406113388782880161116e565b92505060606113498782880161116e565b91505092959194509250565b60008060006060848603121561136e5761136d6110ea565b5b600061137c86828701611138565b935050602061138d8682870161116e565b925050604061139e8682870161116e565b9150509250925092565b6000806000606084860312156113c1576113c06110ea565b5b60006113cf86828701611138565b93505060206113e086828701611138565b92505060406113f1868287016111a4565b9150509250925092565b600080600080600080600060e0888a03121561141a576114196110ea565b5b60006114288a828b01611138565b97505060206114398a828b0161116e565b965050604061144a8a828b01611138565b955050606061145b8a828b0161116e565b945050608061146c8a828b016111a4565b93505060a061147d8a828b01611138565b92505060c061148e8a828b016111a4565b91505092959891949750929550565b600080600080608085870312156114b7576114b66110ea565b5b60006114c587828801611138565b94505060206114d687828801611138565b93505060406114e787828801611138565b92505060606114f8878288016111a4565b91505092959194509250565b61150d8161110f565b82525050565b61151c81611183565b82525050565b600061012082019050611538600083018c611504565b611545602083018b611504565b611552604083018a611504565b61155f6060830189611513565b61156c6080830188611234565b61157960a0830187611513565b61158660c08301866112c4565b61159360e08301856112c4565b6115a1610100830184611234565b9a9950505050505050505050565b60006040820190506115c46000830185611504565b6115d16020830184611504565b9392505050565b6000815190506115e78161118d565b92915050565b600060208284031215611603576116026110ea565b5b6000611611848285016115d8565b91505092915050565b60008160601b9050919050565b60006116328261161a565b9050919050565b600061164482611627565b9050919050565b61165c6116578261110f565b611639565b82525050565b6000819050919050565b61167d61167882611183565b611662565b82525050565b6000819050919050565b61169e6116998261114d565b611683565b82525050565b60006116b0828961164b565b6014820191506116c0828861164b565b6014820191506116d0828761164b565b6014820191506116e0828661166c565b6020820191506116f0828561168d565b602082019150611700828461166c565b602082019150819050979650505050505050565b600081519050919050565b600081905092915050565b60005b8381101561174857808201518184015260208101905061172d565b83811115611757576000848401525b50505050565b600061176882611714565b611772818561171f565b935061178281856020860161172a565b80840191505092915050565b600061179a828461175d565b915081905092915050565b6000815190506117b481611157565b92915050565b6000602082840312156117d0576117cf6110ea565b5b60006117de848285016117a5565b91505092915050565b600082825260208201905092915050565b7f436f6e747261637420616c726561647920657869737473000000000000000000600082015250565b600061182e6017836117e7565b9150611839826117f8565b602082019050919050565b6000602082019050818103600083015261185d81611821565b9050919050565b60006060820190506118796000830186611504565b6118866020830185611504565b6118936040830184611513565b949350505050565b6118a4816112b8565b81146118af57600080fd5b50565b6000815190506118c18161189b565b92915050565b6000602082840312156118dd576118dc6110ea565b5b60006118eb848285016118b2565b91505092915050565b7f7472616e7366657246726f6d2073656e64657220746f2074686973206661696c60008201527f6564000000000000000000000000000000000000000000000000000000000000602082015250565b60006119506022836117e7565b915061195b826118f4565b604082019050919050565b6000602082019050818103600083015261197f81611943565b9050919050565b600060808201905061199b6000830187611504565b6119a86020830186611513565b6119b56040830185611234565b6119c26060830184611513565b95945050505050565b60006040820190506119e06000830185611504565b6119ed6020830184611513565b939250505056fea2646970667358221220fbad772531fd0676193fbb8fb8bdc1076c16ad1cec69ae5127b55385b6c34e0e64736f6c634300080b0033",
  "immutableReferences": {},
  "source": "// SPDX-License-Identifier: GPL-3.0\npragma solidity 0.8.11;\n\nimport \"@openzeppelin/contracts/token/ERC20/ERC20.sol\";\n\ncontract BurnToClaim {\n    event exitTransactionEvent(\n        bytes32 indexed transactionId,\n        address indexed sender,\n        address indexed receiver,\n        address tokenContract,\n        uint256 amount,\n        bytes32 hashlock,\n        uint256 timelock\n    );\n\n    event entryTransactionEvent(bytes32 indexed transactionId);\n    event reclaimTransactionEvent(bytes32 indexed transactionId);\n\n    struct BurnTokenData {\n        address sender;\n        address receiver;\n        address tokenContract;\n        uint256 amount;\n        bytes32 hashlock;\n        uint256 timelock;\n        bool withdrawn;\n        bool refunded;\n        bytes32 preimage;\n    }\n    mapping(bytes32 => BurnTokenData) burnTokenData;\n    struct CrosschainAddress {\n        address contractAddress;\n        bool isExit;\n    }\n    \n    mapping(address => CrosschainAddress) crosschainAddress;\n\n    event requireMockEvent(string  message);\n    event revertMockEvent(string  message);\n\n\n    function registerContract(address contractAddress) external {\n        crosschainAddress[contractAddress] = CrosschainAddress(\n            contractAddress,\n            true\n        );\n    }\n\n    function exitTransaction(\n        address _burnAddress,\n        bytes32 _hashlock,\n        uint256 _timelock,\n        address _tokenContract,\n        uint256 _amount\n    ) external returns (bytes32 transactionId) {\n        uint timeNow = block.timestamp;\n        ERC20(_tokenContract).allowance(msg.sender, address(this));\n\n        transactionId = sha256(\n            abi.encodePacked(\n                msg.sender,\n                _burnAddress,\n                _tokenContract,\n                _amount,\n                _hashlock,\n                _timelock\n            )\n        );\n\n        if (haveContract(transactionId)) revert(\"Contract already exists\");\n        if (\n            !ERC20(_tokenContract).transferFrom(\n                msg.sender,\n                _burnAddress,\n                _amount\n            )\n        ) revert(\"transferFrom sender to this failed\");\n\n        burnTokenData[transactionId] = BurnTokenData(\n            msg.sender,\n            _burnAddress,\n            _tokenContract,\n            _amount,\n            _hashlock,\n            _timelock,\n            false,\n            false,\n            0x0\n        );\n\n        emit exitTransactionEvent(\n            transactionId,\n            msg.sender,\n            _burnAddress,\n            _tokenContract,\n            _amount,\n            _hashlock,\n            block.timestamp\n        );\n    }\n\n    function add(\n        address _crosschainContractAddress,\n        bytes32 _transactionId,\n        address _burnAddress,\n        bytes32 _hashlock,\n        uint256 _timelock,\n        address _tokenContract, // base token contract\n        uint256 _amount\n    ) external {\n        burnTokenData[_transactionId] = BurnTokenData(\n            msg.sender,\n            _burnAddress,\n            _tokenContract,\n            _amount,\n            _hashlock,\n            _timelock,\n            false,\n            false,\n            0x0\n        );\n    }\n\n    function entryTransaction(\n        uint256 _amount,\n        address _receiver,\n        bytes32 _transactionId,\n        bytes32 _preimage\n    ) external returns (bool) {\n\n        BurnTokenData storage c = burnTokenData[_transactionId];\n        c.preimage = _preimage;\n        c.withdrawn = true;\n        if (!ERC20(c.tokenContract).transfer(_receiver, _amount)){\n            revert(\"transferFrom sender to this failed\");\n        }\n        else{\n\n        emit entryTransactionEvent(_transactionId);\n        }\n        return true;\n    }\n\n    function update(\n        address _crosschainContractAddress,\n        bytes32 _transactionId,\n        bytes32 _preimage\n    ) external {\n        BurnTokenData storage c = burnTokenData[_transactionId];\n        c.preimage = _preimage;\n        c.withdrawn = true;\n    }\n\n    function reclaimTransaction(bytes32 _transactionId)\n        external\n        returns (bool)\n    {\n        BurnTokenData storage c = burnTokenData[_transactionId];\n        c.refunded = true;\n        if (!ERC20(c.tokenContract).transfer(c.sender, c.amount))\n            revert(\"transferFrom sender to this failed\");\n        emit reclaimTransactionEvent(_transactionId);\n        return true;\n    }\n\n    function reclaimTransaction1(bytes32 _transactionId)\n        external\n        returns (bool)\n    {\n\n        BurnTokenData storage c = burnTokenData[_transactionId];\n        c.refunded = true;\n        if (!ERC20(c.tokenContract).transfer(c.sender, c.amount))\n            revert(\"transferFrom sender to this failed\");\n        emit reclaimTransactionEvent(_transactionId);\n        return true;\n    }\n\n    function btcTransfer(\n        address _tokenContract,\n        address _recipient,\n        uint256 _amount\n    ) external {\n        if (!ERC20(_tokenContract).transfer(_recipient, _amount))\n            revert(\"transferFrom sender to this failed\");\n    }\n\n    function btcTransferFrom(\n        address _tokenContract,\n        address _sender,\n        address _recipient,\n        uint256 _amount\n    ) external {\n        if (!ERC20(_tokenContract).transferFrom(_sender, _recipient, _amount))\n            revert(\"transferFrom sender to this failed\");\n    }\n\n    function getContract(bytes32 _transactionId)\n        public\n        view\n        returns (\n            address sender,\n            address receiver,\n            address tokenContract,\n            uint256 amount,\n            bytes32 hashlock,\n            uint256 timelock,\n            bool withdrawn,\n            bool refunded,\n            bytes32 preimage\n        )\n    {\n        if (haveContract(_transactionId) == false)\n            return (\n                address(0),\n                address(0),\n                address(0),\n                0,\n                0,\n                0,\n                false,\n                false,\n                0\n            );\n        BurnTokenData storage c = burnTokenData[_transactionId];\n        return (\n            c.sender,\n            c.receiver,\n            c.tokenContract,\n            c.amount,\n            c.hashlock,\n            c.timelock,\n            c.withdrawn,\n            c.refunded,\n            c.preimage\n        );\n    }\n\n    function haveContract(bytes32 _transactionId)\n        internal\n        view\n        returns (bool exists)\n    {\n        exists = (burnTokenData[_transactionId].sender != address(0));\n    }\n}\n",
  "sourcePath": "/home/severalpens/github/burn-to-claim/contracts/BurnToClaim.sol",
  "compiler": {
    "name": "solc",
    "version": "0.8.11+commit.d7f03943.Emscripten.clang"
  },
  "schemaVersion": "3.4.4",
  "updatedAt": "2022-01-21T07:46:59.545Z",
  "devdoc": {
    "kind": "dev",
    "methods": {},
    "version": 1
  },
  "userdoc": {
    "kind": "user",
    "methods": {},
    "version": 1
  }
}